S00D0000534C4156452E737265639C
S11300000C942A000C943C000C943C000C943C008E
S11300100C943C000C943C000C943C000C943C006C
S11300200C943C000C943C000C943C000C943C005C
S11300300C9469010C943C000C943C000C943C001E
S11300400C943C000C943C000C943C000C943C003C
S11300500C943C0011241FBECFE5D8E0DEBFCDBF19
S113006020E0A0E6B0E001C01D92A136B207E1F79E
S11300700E9460010C94D3010C940000843008F0B9
S113008072C0683008F06FC04130A1F5813089F04A
S113009028F08230C9F0833011F108952AB381E049
S11300A090E002C0880F991F6A95E2F7822B8ABB01
S11300B0089527B381E090E002C0880F991F6A95E4
S11300C0E2F7822B87BB089524B381E090E002C05D
S11300D0880F991F6A95E2F7822B84BB089521B398
S11300E081E090E002C0880F991F6A95E2F7822BA5
S11300F081BB0895411137C0813091F028F08230DE
S1130100D9F0833029F108952AB381E090E002C048
S1130110880F991F6A95E2F7809582238ABB089518
S113012027B381E090E002C0880F991F6A95E2F737
S11301308095822387BB089524B381E090E002C0B8
S1130140880F991F6A95E2F78095822384BB0895EE
S113015021B381E090E002C0880F991F6A95E2F70D
S11301608095822381BB0895843008F072C0683082
S113017008F06FC04130A1F5813089F028F0823059
S1130180C9F0833011F108952BB381E090E002C0EF
S1130190880F991F6A95E2F7822B8BBB089528B3C9
S11301A081E090E002C0880F991F6A95E2F7822BE4
S11301B088BB089525B381E090E002C0880F991FA1
S11301C06A95E2F7822B85BB089522B381E090E023
S11301D002C0880F991F6A95E2F7822B82BB0895AB
S11301E0411137C0813091F028F08230D9F083304A
S11301F029F108952BB381E090E002C0880F991F84
S11302006A95E2F7809582238BBB089528B381E039
S113021090E002C0880F991F6A95E2F780958223C7
S113022088BB089525B381E090E002C0880F991F30
S11302306A95E2F78095822385BB089522B381E015
S113024090E002C0880F991F6A95E2F78095822397
S113025082BB089541E062E082E00E943E0008957E
S113026041E062E082E00E94B400089540E062E070
S113027082E00E94B400089541E067E082E00E94B9
S11302803E00089541E067E082E00E94B4000895D2
S113029040E067E082E00E94B400089541E063E03A
S11302A083E00E943E00089541E063E083E00E9401
S11302B0B400089540E063E083E00E943E000895A6
S11302C00E94C0010E942A010E943C010E944E012A
S11302D0FFCF1F920F920FB60F9211242F933F93CB
S11302E04F935F936F937F938F939F93AF93BF933A
S11302F0EF93FF930E94CF01809360008091600090
S1130300823691F08336F1F0813649F50E9430014E
S11303102FEF83ED90E3215080409040E1F700C03F
S113032000000E9436011BC00E9442012FEF83EDA2
S113033090E3215080409040E1F700C000000E940B
S113034048010DC00E9454012FEF83ED90E321502A
S113035080409040E1F700C000000E945A01FF91E4
S1130360EF91BF91AF919F918F917F916F915F9129
S11303704F913F912F910F900FBE0F901F901895A2
S113038087B38F7D87BB87B3806487BB87B38F7741
S113039087BB87B38F7E87BB83E48DB90895779B32
S10D03A0FECF8FB10895F894FFCF4B
S9030000FC
