:100000000C942A000C943C000C943C000C943C0092
:100010000C943C000C943C000C943C000C943C0070
:100020000C943C000C943C000C943C000C943C0060
:100030000C943C000C9449000C943C000C943C0043
:100040000C943C000C943C000C943C000C943C0040
:100050000C943C0011241FBECFE5D8E0DEBFCDBF1D
:1000600020E0A0E6B0E001C01D92A136B207E1F7A2
:100070000E9444000C9499000C9400000E948B0094
:1000800008950E94970008950E943E000E94730008
:10009000FFCF1F920F920FB60F9211242F933F9311
:1000A0004F935F936F937F938F939F93AF93BF9380
:1000B000EF93FF930E944100809360008091600065
:1000C0000E948900FF91EF91BF91AF919F918F9115
:1000D0007F916F915F914F913F912F910F900FBE44
:1000E0000F901F90189587B3806287BB87B38F7B73
:1000F00087BB87B3806887BB87B3806187BB7894F1
:1001000083ED8DB98DB180688DB98DB180648DB965
:1001100008958FB9089588E18AB986E880BD87E699
:1001200089B910BC78948AB180688AB908958CB175
:060130000895F894FFCFD2
:00000001FF
